{
  "abi": [
    {
      "inputs": [],
      "name": "buyInsurance",
      "outputs": [],
      "stateMutability": "payable",
      "type": "function"
    },
    {
      "inputs": [],
      "name": "claimInsurance",
      "outputs": [],
      "stateMutability": "nonpayable",
      "type": "function"
    },
    {
      "inputs": [],
      "name": "get",
      "outputs": [
        {
          "internalType": "uint256",
          "name": "",
          "type": "uint256"
        }
      ],
      "stateMutability": "view",
      "type": "function"
    },
    {
      "inputs": [
        {
          "internalType": "uint256",
          "name": "_x",
          "type": "uint256"
        }
      ],
      "name": "set",
      "outputs": [],
      "stateMutability": "nonpayable",
      "type": "function"
    }
  ],
  "bytecode": "6080604052348015600f57600080fd5b506101af8061001f6000396000f3fe60806040526004361061003f5760003560e01c806360fe47b1146100445780636d4ce63c1461006657806371618c7914610088578063a75ac6081461009f575b600080fd5b34801561005057600080fd5b5061006461005f366004610160565b600055565b005b34801561007257600080fd5b5060005460405190815260200160405180910390f35b610064336000908152600160205260409020349055565b3480156100ab57600080fd5b506100643360009081526001602052604090205461011b5760405162461bcd60e51b815260206004820152602360248201527f596f7520646f6e2774206861766520616e20696e737572616e636520706f6c6960448201526231bc9760e91b606482015260840160405180910390fd5b33600081815260016020526040808220805490839055905190929183156108fc02918491818181858888f1935050505015801561015c573d6000803e3d6000fd5b5050565b60006020828403121561017257600080fd5b503591905056fea264697066735822122033a093baf56134aa6f0e1211718f5b05e9779a0b860c16b8bc66dd900a7ab06964736f6c63430008190033",
  "bytecodeSha1": "bae1ecba6e78678586a741462e3e4133d0705753",
  "compiler": {
    "evm_version": "istanbul",
    "optimizer": {
      "enabled": true,
      "runs": 200
    },
    "version": "0.8.25+commit.b61c2a91"
  },
  "contractName": "SimpleStorage",
  "language": "Solidity",
  "natspec": {
    "kind": "dev",
    "methods": {},
    "version": 1
  },
  "opcodes": "PUSH1 0x80 PUSH1 0x40 MSTORE PUSH1 0x4 CALLDATASIZE LT PUSH2 0x3F JUMPI PUSH1 0x0 CALLDATALOAD PUSH1 0xE0 SHR DUP1 PUSH4 0x60FE47B1 EQ PUSH2 0x44 JUMPI DUP1 PUSH4 0x6D4CE63C EQ PUSH2 0x66 JUMPI DUP1 PUSH4 0x71618C79 EQ PUSH2 0x88 JUMPI DUP1 PUSH4 0xA75AC608 EQ PUSH2 0x9F JUMPI JUMPDEST PUSH1 0x0 DUP1 REVERT JUMPDEST CALLVALUE DUP1 ISZERO PUSH2 0x50 JUMPI PUSH1 0x0 DUP1 REVERT JUMPDEST POP PUSH2 0x64 PUSH2 0x5F CALLDATASIZE PUSH1 0x4 PUSH2 0x160 JUMP JUMPDEST PUSH1 0x0 SSTORE JUMP JUMPDEST STOP JUMPDEST CALLVALUE DUP1 ISZERO PUSH2 0x72 JUMPI PUSH1 0x0 DUP1 REVERT JUMPDEST POP PUSH1 0x0 SLOAD PUSH1 0x40 MLOAD SWAP1 DUP2 MSTORE PUSH1 0x20 ADD PUSH1 0x40 MLOAD DUP1 SWAP2 SUB SWAP1 RETURN JUMPDEST PUSH2 0x64 CALLER PUSH1 0x0 SWAP1 DUP2 MSTORE PUSH1 0x1 PUSH1 0x20 MSTORE PUSH1 0x40 SWAP1 KECCAK256 CALLVALUE SWAP1 SSTORE JUMP JUMPDEST CALLVALUE DUP1 ISZERO PUSH2 0xAB JUMPI PUSH1 0x0 DUP1 REVERT JUMPDEST POP PUSH2 0x64 CALLER PUSH1 0x0 SWAP1 DUP2 MSTORE PUSH1 0x1 PUSH1 0x20 MSTORE PUSH1 0x40 SWAP1 KECCAK256 SLOAD PUSH2 0x11B JUMPI PUSH1 0x40 MLOAD PUSH3 0x461BCD PUSH1 0xE5 SHL DUP2 MSTORE PUSH1 0x20 PUSH1 0x4 DUP3 ADD MSTORE PUSH1 0x23 PUSH1 0x24 DUP3 ADD MSTORE PUSH32 0x596F7520646F6E2774206861766520616E20696E737572616E636520706F6C69 PUSH1 0x44 DUP3 ADD MSTORE PUSH3 0x31BC97 PUSH1 0xE9 SHL PUSH1 0x64 DUP3 ADD MSTORE PUSH1 0x84 ADD PUSH1 0x40 MLOAD DUP1 SWAP2 SUB SWAP1 REVERT JUMPDEST CALLER PUSH1 0x0 DUP2 DUP2 MSTORE PUSH1 0x1 PUSH1 0x20 MSTORE PUSH1 0x40 DUP1 DUP3 KECCAK256 DUP1 SLOAD SWAP1 DUP4 SWAP1 SSTORE SWAP1 MLOAD SWAP1 SWAP3 SWAP2 DUP4 ISZERO PUSH2 0x8FC MUL SWAP2 DUP5 SWAP2 DUP2 DUP2 DUP2 DUP6 DUP9 DUP9 CALL SWAP4 POP POP POP POP ISZERO DUP1 ISZERO PUSH2 0x15C JUMPI RETURNDATASIZE PUSH1 0x0 DUP1 RETURNDATACOPY RETURNDATASIZE PUSH1 0x0 REVERT JUMPDEST POP POP JUMP JUMPDEST PUSH1 0x0 PUSH1 0x20 DUP3 DUP5 SUB SLT ISZERO PUSH2 0x172 JUMPI PUSH1 0x0 DUP1 REVERT JUMPDEST POP CALLDATALOAD SWAP2 SWAP1 POP JUMP INVALID LOG2 PUSH5 0x6970667358 0x22 SLT KECCAK256 CALLER LOG0 SWAP4 0xBA CREATE2 PUSH2 0x34AA PUSH16 0xE1211718F5B05E9779A0B860C16B8BC PUSH7 0xDD900A7AB06964 PUSH20 0x6F6C634300081900330000000000000000000000 ",
  "sha1": "9e65038db0dcff867dfc9b4d978789d4f1f5be36",
  "source": "pragma solidity >=0.4.22 <0.9.0;\n\ncontract SimpleStorage {\n\n    uint256 id;\n\n    // Insurance policy function\n    mapping(address => uint256) insurancePolicy;\n\n    function set(uint256 _x) public {\n        id = _x;\n    }\n\n    function get() public view returns (uint256) {\n        return id;\n    }\n\n    // Function to buy insurance policy\n    function buyInsurance() public payable {\n        insurancePolicy[msg.sender] = msg.value;\n    }\n\n    // Function to claim insurance\n    function claimInsurance() public {\n        require(insurancePolicy[msg.sender] > 0, \"You don't have an insurance policy.\");\n        uint256 amountToClaim = insurancePolicy[msg.sender];\n        insurancePolicy[msg.sender] = 0;\n        payable(msg.sender).transfer(amountToClaim);\n    }\n}\n",
  "sourcePath": "contracts/SimpleStorage.sol",
  "type": "contract"
}